:100000005EC00000CAC20000EFC2000080C0000055
:100010007EC000007CC000007AC000000C94A008E4
:1000200076C0000074C0000072C0000070C0000004
:100030006EC000000C9412096AC0000068C0000085
:10004000FAC2000064C0000045C5000075C500008C
:100050005EC000005CC000005AC0000058C0000034
:1000600056C0000054C0000000000008000201005B
:100070000003040700000000000000000102040863
:100080001020408001020408102001020408102002
:10009000040404040404040402020202020203032E
:1000A0000303030300000000250028002B000000CC
:1000B0000000240027002A000200C1052D0611249B
:1000C0001FBECFEFD8E0DEBFCDBF11E0A0E0B1E0B2
:1000D000E6E0F8E102C005900D92A034B107D9F72F
:1000E00022E0A0E4B1E001C01D92A233B207E1F723
:1000F00010E0CFE5D0E004C02197FE010E94FB0B89
:10010000CD35D107C9F70E9474090C94010C78CF42
:100110006F927F928F929F92AF92BF92CF92DF9217
:10012000EF92FF920F931F93CF93DF931F92CDB760
:10013000DEB7F02E9C2D30E02830310511F424E09C
:1001400030E0992339F0913041F0923049F002E0EB
:1001500010E008C00AE010E005C000E110E002C0B5
:1001600008E010E081110DC1F1101AC0249FC001F8
:10017000259F900D349F900D1124AC0189E491E0EE
:100180000F90DF91CF911F910F91FF90EF90DF9033
:10019000CF90BF90AF909F908F907F906F9068C5E9
:1001A000C4016A01B72E962EBC0189E491E0E98270
:1001B0009FD53981311119C0692C7B2CC60CD71CF5
:1001C0006C147D0409F4DDC081E0A801F3016081B5
:1001D000F81204C089E491E05BD603C089E491E0A1
:1001E0005DD6FFEF6F1A7F0AEBCF3130D9F4692C5F
:1001F0007B2CC114D10409F4C4C081E0F3016081F7
:100200007181A801F81204C089E491E05CD603C0B2
:1002100089E491E05DD6F1E0CF1AD10882E0680E62
:10022000711CE7CF323019F5692C7B2CC114D10435
:1002300009F4A7C0E1E0FE120AC0F3014081518138
:1002400062817381980189E491E016D609C0F301B7
:100250004081518162817381980189E491E04CD69B
:10026000F1E0CF1AD10884E0680E711CDFCF333083
:1002700011F5692C7B2CC60CD71C6C147D0409F479
:1002800080C0E1E0FE120AC0F3016081062E000C7E
:10029000770BA80189E491E0C4D509C0F30160811E
:1002A000062E000C770BA80189E491E0C0D5FFEF82
:1002B0006F1A7F0AE2CF3430D9F4692C7B2CC11439
:1002C000D10409F45EC081E0F30160817181A8016D
:1002D000F81204C089E491E0A4D503C089E491E058
:1002E000A6D5F1E0CF1AD10882E0680E711CE7CFE5
:1002F000353019F5692C7B2CC114D10409F441C0A7
:10030000E1E0FE120AC0F3014081518162817381F4
:10031000980189E491E03ED509C0F3014081518103
:1003200062817381980189E491E096D5F1E0CF1A5A
:10033000D10884E0680E711CDFCF363011F5092D2D
:100340001B2DB12CC114D104E1F0E1E0FE120AC072
:10035000F8014081518162817381950189E491E0C6
:10036000AAD609C0F801408151816281738195014B
:1003700089E491E0A1D6F1E0CF1AD1080C5F1F4FBC
:10038000E1CF0F90DF91CF911F910F91FF90EF90F0
:10039000DF90CF90BF90AF909F908F907F906F90A5
:1003A00008958F929F92AF92CF92EF920F93CF9337
:1003B000DF9300D0CDB7DEB780910A01C1D1ACEF99
:1003C000B1E0FD0122E0EC31F207A9F04191519139
:1003D00061917191413051056105710599F341E0D9
:1003E00050E060E070E04D935D936D937D9322E06B
:1003F000AC31B207C1F7A0910E01B0910F019C0181
:100400000E94EC0BDC01CB0121E1B695A7959795F5
:1004100087952A95D1F7898360912C0270912D02DE
:1004200080912E0290912F020E94810AC62E609127
:1004300024027091250280912602909127020E9449
:10044000810AE62E609128027091290280912A0289
:1004500090912B020E94810A062F609120027091D8
:10046000210280912202909123020E94810A262F6C
:1004700060911C0270911D0280911E0290911F02DA
:100480002A830E94810A862F812C912C32E0A32E90
:100490002A8141E050E0BE016F5F7F4F39DE0F904F
:1004A0000F90DF91CF910F91EF90CF90AF909F90F1
:1004B0008F900895CF93DF931092F7011092F60179
:1004C000C8EFD1E08AE3FE0111928A95E9F76091C5
:1004D0000A0170910B0180910C0190910D0196D64B
:1004E00081E090E0A0E0B0E088839983AA83BB8399
:1004F0008C839D83AE83BF8388879987AA87BB87B8
:100500008C879D87AE87BF87888B998BAA8BBB8B87
:100510008C8B9D8BAE8BBF8B888F998FAA8FBB8F57
:100520008C8F9D8FAE8FBF8F88A399A3AAA3BBA3E7
:100530001CA21DA21EA21FA280E090E0A0E8BFE3C3
:1005400088A799A7AAA7BBA71CA61DA61EA61FA67B
:1005500018AA19AA1AAA1BAA1CAA1DAA1EAA1FAA6F
:10056000DF91CF9108958091F8019091F901A091C8
:10057000FA01B091FB010197A105B10561F482E098
:1005800090E0A0E0B0E08093F8019093F901A0938F
:10059000FA01B093FB01089508951F920F920FB6D0
:1005A0000F9211242F933F934F935F936F937F93F9
:1005B0008F939F93AF93BF93EF93FF93E0911001BD
:1005C000F09111010995FF91EF91BF91AF919F912A
:1005D0008F917F916F915F914F913F912F910F90EC
:1005E0000FBE0F901F9018951F920F920FB60F928B
:1005F00011242F933F934F935F936F937F938F9328
:100600009F93AF93BF93EF93FF93E0911201F0910B
:1006100013010995FF91EF91BF91AF919F918F9138
:100620007F916F915F914F913F912F910F900FBEEE
:100630000F901F9018951F920F920FB60F921124D2
:100640002F933F938F939F93AF93BF9380914101DB
:1006500090914201A0914301B09144013091400139
:1006600023E0230F2D3720F40196A11DB11D05C0F5
:1006700026E8230F0296A11DB11D2093400180930F
:10068000410190934201A0934301B09344018091B2
:10069000450190914601A0914701B0914801019612
:1006A000A11DB11D8093450190934601A093470180
:1006B000B0934801BF91AF919F918F913F912F913E
:1006C0000F900FBE0F901F901895789484B582609C
:1006D00084BD84B5816084BD85B5826085BD85B5E6
:1006E000816085BDEEE6F0E0808181608083E1E895
:1006F000F0E01082808182608083808181608083CD
:10070000E0E8F0E0808181608083E1EBF0E08081CF
:1007100084608083E0EBF0E0808181608083EAE7A1
:10072000F0E080818460808380818260808380812A
:10073000816080838081806880831092C1000895E9
:100740008E3008F08E5087702091140190E4299F1C
:1007500090011124822B80937C0080917A00806428
:1007600080937A0080917A0086FDFCCF809178009A
:100770002091790090E0922B0895833081F028F445
:10078000813099F08230A1F008958730A9F0883047
:10079000B9F08430D1F4809180008F7D03C08091C6
:1007A00080008F7780938000089584B58F7702C092
:1007B00084B58F7D84BD08958091B0008F7703C08C
:1007C0008091B0008F7D8093B0000895CF93DF9328
:1007D00090E0FC01E458FF4F2491FC01E057FF4FEB
:1007E0008491882361F190E0880F991FFC01E25504
:1007F000FF4FC591D491FC01EC55FF4FA591B491E9
:10080000611109C09FB7F89488812095822388835D
:10081000EC912E230BC0623061F49FB7F8943881BD
:10082000822F809583238883EC912E2B2C939FBF5E
:1008300006C08FB7F894E8812E2B28838FBFDF91F5
:10084000CF9108951F93CF93DF93282F30E0F901C4
:10085000E859FF4F8491F901E458FF4FD491F90111
:10086000E057FF4FC491CC23C1F0162F811185DFD3
:10087000EC2FF0E0EE0FFF1FEC55FF4FA591B49168
:100880008FB7F894111105C09C91ED2FE095E923E5
:1008900002C0EC91ED2BEC938FBFDF91CF911F91B4
:1008A0000895FC01918D228D892F90E0805C9F4FEF
:1008B000821B91098F7399270895FC01918D828D78
:1008C000981731F0828DE80FF11D858D90E0089525
:1008D0008FEF9FEF0895FC01918D828D981761F045
:1008E000828DDF01A80FB11D5D968C91928D9F5F67
:1008F0009F73928F90E008958FEF9FEF0895FC0112
:10090000848DDF01A80FB11DA35ABF4F2C91848D98
:1009100090E001968F739927848FA689B7892C93CD
:10092000A089B1898C9180648C93938D848D981368
:1009300006C00288F389E02D80818F7D8083089531
:10094000CF93DF93EC01888D8823C1F0EA89FB897E
:10095000808185FD05C0A889B9898C9186FD0EC06E
:100960000FB607FCF5CF808185FFF2CFA889B98942
:100970008C9185FFEDCFCE01C2DFE8CFDF91CF9123
:100980000895EF92FF920F931F93CF93DF93EC01A3
:1009900081E0888F9B8D8C8D981305C0E889F9893B
:1009A000808185FD23C0F62E0B8D10E00F5F1F4F59
:1009B0000F731127E02E8C8DE8120BC00FB607FCC9
:1009C000FACFE889F989808185FFF5CFCE0197DFDD
:1009D000F2CF8B8DFE01E80FF11DE35AFF4FF0823D
:1009E0000B8FEA89FB898081806207C0EE89FF89CD
:1009F0006083E889F98980818064808381E090E068
:100A0000DF91CF911F910F91FF90EF900895CF92BA
:100A1000DF92EF92FF921F93CF93DF93EC016A0175
:100A20007B01122FE889F98982E080834115514EBC
:100A300061057105A9F060E079E08DE390E0A70120
:100A40009601A8D6DA01C9010197A109B109B695A5
:100A5000A79597958795AC01411580E15807A0F0BF
:100A6000E889F989108260E874E88EE190E0A701D6
:100A7000960190D6BA01A901415051096109710945
:100A80007695679557954795EC85FD855083EE855E
:100A9000FF854083188EEC89FD891083EA89FB89E4
:100AA000808180618083EA89FB898081886080837E
:100AB000EA89FB89808180688083EA89FB8980815B
:100AC0008F7D8083DF91CF911F91FF90EF90DF901A
:100AD000CF9008951F920F920FB60F9211242F936B
:100AE0008F939F93EF93FF93E0915901F0915A01F7
:100AF0008081E0915F01F091600182FD12C09081E0
:100B0000809162018F5F8F7320916301821751F092
:100B1000E0916201F0E0E75BFE4F958F8093620108
:100B200001C08081FF91EF919F918F912F910F9044
:100B30000FBE0F901F9018951F920F920FB60F9235
:100B400011242F933F934F935F936F937F938F93D2
:100B50009F93AF93BF93EF93FF9389E491E0CFDE30
:100B6000FF91EF91BF91AF919F918F917F916F9185
:100B70005F914F913F912F910F900FBE0F901F905B
:100B80001895E9E4F1E01382128288EE93E0A0E088
:100B9000B0E084839583A683B7838CE191E0918351
:100BA000808385EC90E09587848784EC90E097873C
:100BB000868780EC90E0918B808B81EC90E0938B2A
:100BC000828B82EC90E0958B848B86EC90E0978B07
:100BD000868B118E128E138E148E08958F929F9293
:100BE000AF92BF92CF92DF92EF92FF920F931F933B
:100BF000CF93DF937C018B016C0182E0C80ED11C86
:100C00004701E5E08E0E911CC0E0D0E0F601619155
:100C10006F014AE050E0C8013BD15C016EE2C801BF
:100C200068D08A0D9B1DC80FD91FC814D90471F74D
:100C30004AE050E0F7016581C8012AD18C0F9D1F61
:100C4000DF91CF911F910F91FF90EF90DF90CF90A8
:100C5000BF90AF909F908F900895E6EEF1E08CE208
:100C600091E0918380831282138214821582089509
:100C7000CF92DF92EF92FF920F931F93CF93DF9368
:100C80006C017A018B01C0E0D0E0CE15DF0589F060
:100C9000D8016D918D01D601ED91FC910190F0810B
:100CA000E02DC6010995892B11F47E0102C0219621
:100CB000ECCFC701DF91CF911F910F91FF90EF9083
:100CC000DF90CF9008956115710579F0FB010190D7
:100CD0000020E9F73197AF01461B570BDC01ED917E
:100CE000FC910280F381E02D099480E090E008956A
:100CF000EACFDC01ED91FC910190F081E02D0994A7
:100D00006EE271E0E0CF4F925F926F927F92EF922E
:100D1000FF920F931F93CF93DF93CDB7DEB7A197C9
:100D20000FB6F894DEBF0FBECDBF7C01FA01CB0138
:100D300019A2223008F42AE08E010F5D1F4F422EC7
:100D4000512C612C712CBF01A301920123D5F90113
:100D5000CA01015011096A3014F4605D01C0695C78
:100D6000D8016C93232B242B252B69F7B801C701DD
:100D7000AADFA1960FB6F894DEBF0FBECDBFDF91FC
:100D8000CF911F910F91FF90EF907F906F905F90A8
:100D90004F900895CF92DF92EF92FF920F931F939F
:100DA000CF93DF93EC016A017B012115310579F4C2
:100DB000E881F9810190F081E02D642FDF91CF91DE
:100DC0001F910F91FF90EF90DF90CF9009942A3000
:100DD0003105D9F477FF18C06DE28BDF8C01442711
:100DE0005527BA014C195D096E097F092AE0CE0129
:100DF0008ADF800F911FDF91CF911F910F91FF909C
:100E0000EF90DF90CF9008952AE0B701A601CE01C0
:100E1000DF91CF911F910F91FF90EF90DF90CF90D6
:100E200072CF9A01AB01770F660B770BB3CF0F939D
:100E30001F93CF93DF93EC019A01AB01770F660B01
:100E4000770BA8DF8C01CE015BDF800F911FDF9154
:100E5000CF911F910F9108950F931F93CF93DF931D
:100E6000EC0198DF8C01CE014BDF800F911FDF91E9
:100E7000CF911F910F9108952115310541F4DC01A7
:100E8000ED91FC910190F081E02D642F09943BCF0E
:100E90009A01462F50E060E070E0EECF0F931F9371
:100EA000CF93DF93EC019A01462F50E060E070E0B1
:100EB000E3DF8C01CE0124DF800F911FDF91CF9102
:100EC0001F910F9108959A01AB0160E070E0D4CFBB
:100ED0000F931F93CF93DF93EC019A01AB0160E076
:100EE00070E0CADF8C01CE010BDF800F911FDF9114
:100EF000CF911F910F9108950F931F93CF93DF937D
:100F0000EC01BADF8C01CE01FBDE800F911FDF9177
:100F1000CF911F910F9108954F925F926F927F92A0
:100F20008F929F92AF92BF92CF92DF92EF92FF92F9
:100F3000CF93DF93EC016A017B01B22E9A01AB01E2
:100F4000C701B60123D4882319F061E371E024C0FE
:100F500026013701E89477F82FEF3FEF4FE75FE77F
:100F6000C301B20113D481110CC02FEF3FEF4FE743
:100F70005FE7C301B20159D218161CF465E371E0B2
:100F80000BC02FEF3FEF4FE75FE4C701B60197D3E8
:100F9000181694F469E371E0CE01DF91CF91FF90D0
:100FA000EF90DF90CF90BF90AF909F908F907F9009
:100FB0006F905F904F9087CE2FEF3FEF4FE75FEC42
:100FC000C701B60132D287FDE5CF20E030E0A901AC
:100FD000C701B6012AD287FF09C06DE2CE0189DEC2
:100FE0004C01F7FAF094F7F8F09402C0812C912CA0
:100FF000A12C60E070E080E09FE3AB1439F020E0CA
:1010000030E040E251E415D2A394F7CF9B01AC014C
:10101000C701B601A6D12B013C0173D26B017C0143
:101020009CD29B01AC01C301B2019AD12B013C01BE
:101030002AE0B701A601CE0166DE7C01E80CF91CAE
:10104000BB2031F06DE371E0CE013DDEE80EF91E0C
:10105000DB2CDD2001F120E030E040E251E4C3016F
:10106000B20131D32B013C014CD24B01A12CB12C4C
:101070002AE0B501A401CE0146DEE80EF91EC50145
:10108000B4016BD29B01AC01C301B20169D12B0148
:101090003C01DA94DECFC701DF91CF91FF90EF9052
:1010A000DF90CF90BF90AF909F908F907F906F9088
:1010B0005F904F90089530CF0F931F93CF93DF939E
:1010C000EC012ADF8C01CE011BDE800F911FDF9126
:1010D000CF911F910F910895813039F018F082302F
:1010E00051F0089510926E00089580916F008D7FE9
:1010F00080936F000895809170008D7F80937000C1
:1011000081E08093B0008091B100887F84608093FB
:10111000B1001092B3000895CF93C82F80911501AC
:101120008C1307C0E8EBF0E0E4918FEF809315019A
:1011300001C0EFEF8E2FD0DF60E08C2FCF9182CBFC
:101140001F920F920FB60F9211242F933F934F933C
:101150005F936F937F938F939F93AF93BF93EF931F
:10116000FF938091EF019091F001A091F101B09176
:10117000F201892B8A2B8B2B51F18091EC01E091AC
:10118000ED01F091EE019081892780838091EF013C
:101190009091F001A091F101B091F2011816190699
:1011A0001A061B06BCF48091EF019091F001A0910A
:1011B000F101B091F2010197A109B1098093EF010A
:1011C0009093F001A093F101B093F20103C08091DC
:1011D0001501A2DFFF91EF91BF91AF919F918F9188
:1011E0007F916F915F914F913F912F910F900FBE23
:1011F0000F901F90189540E855E260E070E080E0A5
:1012000090E000C026E089E491E001CCDC01CB0154
:101210008E309105A105B10518F40E96A11DB11DE2
:1012200060E0D4CA1F920F920FB60F9211242F9331
:101230003F934F935F936F937F938F939F93AF935E
:10124000BF93EF93FF938EE19BEF90938500809384
:10125000840032D0FF91EF91BF91AF919F918F9118
:101260007F916F915F914F913F912F910F900FBEA2
:101270000F901F9018958EE19BEF909385008093BF
:101280008400AFE6B0E08C918E7F8C93E0E8F0E0D4
:1012900080818C7F8083E1E8F0E08081877E80839D
:1012A00080818460808380818C7F80838C91816049
:1012B0008C93089581E008958091F30191E0980F57
:1012C0009093F301882339F021E030E03093F50169
:1012D0002093F40106C0789464D8F8948091F301C7
:1012E00081508093F30108950F931F93CF93DF9361
:1012F0001F92CDB7DEB781E08983E7D97CDF00910B
:10130000160110911701F80111821082D3D8B3DFB2
:1013100081E0F80120813181232B09F080E089836D
:10132000789478948981882389F081E0F80120817C
:101330003181232B09F080E089838981882311F092
:10134000B9DF02C080E090E08983ECCF0CD9F8943B
:1013500080E090E00F90DF91CF911F910F91089561
:101360005058BB27AA270ED070C161D130F066D18A
:1013700020F031F49F3F11F41EF456C10EF4E095B5
:10138000E7FB4CC1E92F72D180F3BA1762077307EC
:101390008407950718F071F49EF58AC10EF4E09564
:1013A0000B2EBA2FA02D0B01B90190010C01CA011F
:1013B000A0011124FF27591B99F0593F50F4503ECA
:1013C00068F11A16F040A22F232F342F4427585FBC
:1013D000F3CF469537952795A795F0405395C9F7D4
:1013E0007EF41F16BA0B620B730B840BBAF091508C
:1013F000A1F0FF0FBB1F661F771F881FC2F70EC02B
:10140000BA0F621F731F841F48F4879577956795FD
:10141000B795F7959E3F08F0B3CF9395880F08F0E6
:101420009927EE0F979587950895D4D008F481E019
:1014300008950CD00AC102D140F0F9D030F021F467
:101440005F3F19F0EBC0511134C1EEC00FD198F3DA
:101450009923C9F35523B1F3951B550BBB27AA2735
:1014600062177307840738F09F5F5F4F220F331FA7
:10147000441FAA1FA9F333D00E2E3AF0E0E830D073
:1014800091505040E695001CCAF729D0FE2F27D076
:10149000660F771F881FBB1F261737074807AB0744
:1014A000B0E809F0BB0B802DBF01FF2793585F4FB9
:1014B0002AF09E3F510568F0B1C0FBC05F3FECF3DE
:1014C000983EDCF3869577956795B795F7959F5F7E
:1014D000C9F7880F911D9695879597F90895E1E0D2
:1014E000660F771F881FBB1F621773078407BA0731
:1014F00020F0621B730B840BBA0BEE1F88F7E0958C
:101500000895BCD088F09F5790F0B92F9927B75114
:10151000A0F0D1F0660F771F881F991F1AF0BA95B7
:10152000C9F712C0B13081F0C3D0B1E00895C0C096
:10153000672F782F8827B85F39F0B93FCCF38695AD
:1015400077956795B395D9F73EF49095809570950A
:1015500061957F4F8F4F9F4F0895E89409C097FB87
:101560003EF490958095709561957F4F8F4F9F4F7A
:101570009923A9F0F92F96E9BB279395F6958795BE
:1015800077956795B795F111F8CFFAF4BB0F11F481
:1015900060FF1BC06F5F7F4F8F4F9F4F16C0882328
:1015A00011F096E911C0772321F09EE8872F762F5E
:1015B00005C0662371F096E8862F70E060E02AF09F
:1015C0009A95660F771F881FDAF7880F969587958B
:1015D00097F90895990F0008550FAA0BE0E8FEEF60
:1015E00016161706E807F907C0F012161306E407E7
:1015F000F50798F0621B730B840B950B39F40A26E0
:1016000061F0232B242B252B21F408950A2609F4BD
:10161000A140A6958FEF811D811D089597F99F67C1
:1016200080E870E060E008959FEF80EC089500246A
:101630000A941616170618060906089500240A9437
:1016400012161306140605060895092E0394000CBD
:1016500011F4882352F0BB0F40F4BF2B11F460FF4C
:1016600004C06F5F7F4F8F4F9F4F089557FD905875
:10167000440F551F59F05F3F71F04795880F97FB56
:10168000991F61F09F3F79F0879508951216130610
:101690001406551FF2CF4695F1DF08C0161617063F
:1016A0001806991FF1CF8695710561050894089574
:1016B000E894BB2766277727CB0197F908958ADF3F
:1016C00008F48FEF08950BD0C0CFB1DF28F0B6DF5C
:1016D00018F0952309F0A2CFA7CF1124EACFC6DFD7
:1016E000A0F3959FD1F3950F50E0551F629FF00135
:1016F000729FBB27F00DB11D639FAA27F00DB11D8E
:10170000AA1F649F6627B00DA11D661F829F222716
:10171000B00DA11D621F739FB00DA11D621F839F9D
:10172000A00D611D221F749F3327A00D611D231F73
:10173000849F600D211D822F762F6A2F11249F57C1
:1017400050408AF0E1F088234AF0EE0FFF1FBB1FE4
:10175000661F771F881F91505040A9F79E3F510583
:1017600070F05CCFA6CF5F3FECF3983EDCF386953C
:1017700077956795B795F795E7959F5FC1F7FE2B2E
:10178000880F911D9695879597F9089523DF880B0B
:10179000990B0895A1E21A2EAA1BBB1BFD010DC0D7
:1017A000AA1FBB1FEE1FFF1FA217B307E407F50711
:1017B00020F0A21BB30BE40BF50B661F771F881FED
:1017C000991F1A9469F760957095809590959B0183
:1017D000AC01BD01CF010895A29FB001B39FC0012C
:1017E000A39F700D811D1124911DB29F700D811D4D
:1017F0001124911D0895EE0FFF1F0590F491E02D27
:061800000994F894FFCFEB
:10180600000032028000010000000200000000809B
:10181600CC02CC0201FFF60100000000C10438062C
:1018260051046B045D04A00400000000EE050D0ADF
:10183600006E616E00696E66006F7666002E0000AF
:00000001FF
